{
  "_format": "hh-sol-artifact-1",
  "contractName": "pwContract",
  "sourceName": "contracts/pwContract.sol",
  "abi": [
    {
      "anonymous": false,
      "inputs": [
        {
          "indexed": false,
          "internalType": "address",
          "name": "recipient",
          "type": "address"
        },
        {
          "indexed": false,
          "internalType": "uint256",
          "name": "pwDataId",
          "type": "uint256"
        }
      ],
      "name": "AddData",
      "type": "event"
    },
    {
      "anonymous": false,
      "inputs": [
        {
          "indexed": false,
          "internalType": "uint256",
          "name": "pwDataId",
          "type": "uint256"
        },
        {
          "indexed": false,
          "internalType": "bool",
          "name": "isDeleted",
          "type": "bool"
        }
      ],
      "name": "DeleteData",
      "type": "event"
    },
    {
      "anonymous": false,
      "inputs": [
        {
          "indexed": false,
          "internalType": "uint256",
          "name": "pwDataId",
          "type": "uint256"
        }
      ],
      "name": "UpdateData",
      "type": "event"
    },
    {
      "inputs": [
        {
          "internalType": "string",
          "name": "sitename",
          "type": "string"
        },
        {
          "internalType": "string",
          "name": "username",
          "type": "string"
        },
        {
          "internalType": "string",
          "name": "password",
          "type": "string"
        },
        {
          "internalType": "bool",
          "name": "isDeleted",
          "type": "bool"
        }
      ],
      "name": "addData",
      "outputs": [],
      "stateMutability": "nonpayable",
      "type": "function"
    },
    {
      "inputs": [
        {
          "internalType": "uint256",
          "name": "pwDataId",
          "type": "uint256"
        },
        {
          "internalType": "bool",
          "name": "isDeleted",
          "type": "bool"
        }
      ],
      "name": "deleteData",
      "outputs": [],
      "stateMutability": "nonpayable",
      "type": "function"
    },
    {
      "inputs": [],
      "name": "getMyData",
      "outputs": [
        {
          "components": [
            {
              "internalType": "uint256",
              "name": "id",
              "type": "uint256"
            },
            {
              "internalType": "string",
              "name": "sitename",
              "type": "string"
            },
            {
              "internalType": "string",
              "name": "username",
              "type": "string"
            },
            {
              "internalType": "string",
              "name": "password",
              "type": "string"
            },
            {
              "internalType": "bool",
              "name": "isDeleted",
              "type": "bool"
            }
          ],
          "internalType": "struct pwContract.data[]",
          "name": "",
          "type": "tuple[]"
        }
      ],
      "stateMutability": "view",
      "type": "function"
    },
    {
      "inputs": [
        {
          "internalType": "uint256",
          "name": "pwDataId",
          "type": "uint256"
        },
        {
          "internalType": "string",
          "name": "sitename",
          "type": "string"
        },
        {
          "internalType": "string",
          "name": "username",
          "type": "string"
        },
        {
          "internalType": "string",
          "name": "password",
          "type": "string"
        },
        {
          "internalType": "bool",
          "name": "isDeleted",
          "type": "bool"
        }
      ],
      "name": "updateData",
      "outputs": [],
      "stateMutability": "nonpayable",
      "type": "function"
    }
  ],
  "bytecode": "0x608060405234801561001057600080fd5b50610c8e806100206000396000f3fe608060405234801561001057600080fd5b506004361061004c5760003560e01c8063a54f1d8714610051578063d9c8a38b14610066578063e73f05ac14610084578063fc8e0e3614610097575b600080fd5b61006461005f3660046107c8565b6100aa565b005b61006e61014f565b60405161007b919061083a565b60405180910390f35b610064610092366004610996565b610555565b6100646100a5366004610a39565b61067e565b600082815260016020526040902054336001600160a01b039091160361014b5780600083815481106100de576100de610ad2565b906000526020600020906005020160040160006101000a81548160ff0219169083151502179055507fce1b4fd4376d97dbc329db3c714085bc7dd6b04b996b664d24e0ba1840aa03d682826040516101429291909182521515602082015260400190565b60405180910390a15b5050565b600080546060919067ffffffffffffffff81111561016f5761016f6108f3565b6040519080825280602002602001820160405280156101d457816020015b6101c16040518060a00160405280600081526020016060815260200160608152602001606081526020016000151581525090565b81526020019060019003908161018d5790505b5090506000805b600054811015610474576000818152600160205260409020546001600160a01b03163314801561023257506000818154811061021957610219610ad2565b600091825260209091206004600590920201015460ff16155b15610462576000818154811061024a5761024a610ad2565b90600052602060002090600502016040518060a00160405290816000820154815260200160018201805461027d90610ae8565b80601f01602080910402602001604051908101604052809291908181526020018280546102a990610ae8565b80156102f65780601f106102cb576101008083540402835291602001916102f6565b820191906000526020600020905b8154815290600101906020018083116102d957829003601f168201915b5050505050815260200160028201805461030f90610ae8565b80601f016020809104026020016040519081016040528092919081815260200182805461033b90610ae8565b80156103885780601f1061035d57610100808354040283529160200191610388565b820191906000526020600020905b81548152906001019060200180831161036b57829003601f168201915b505050505081526020016003820180546103a190610ae8565b80601f01602080910402602001604051908101604052809291908181526020018280546103cd90610ae8565b801561041a5780601f106103ef5761010080835404028352916020019161041a565b820191906000526020600020905b8154815290600101906020018083116103fd57829003601f168201915b50505091835250506004919091015460ff161515602090910152835184908490811061044857610448610ad2565b6020026020010181905250818061045e90610b22565b9250505b8061046c81610b22565b9150506101db565b5060008167ffffffffffffffff811115610490576104906108f3565b6040519080825280602002602001820160405280156104f557816020015b6104e26040518060a00160405280600081526020016060815260200160608152602001606081526020016000151581525090565b8152602001906001900390816104ae5790505b50905060005b8281101561054d5783818151811061051557610515610ad2565b602002602001015182828151811061052f5761052f610ad2565b6020026020010181905250808061054590610b22565b9150506104fb565b509392505050565b600085815260016020526040902054336001600160a01b039091160361067757836000868154811061058957610589610ad2565b906000526020600020906005020160010190816105a69190610b98565b5082600086815481106105bb576105bb610ad2565b906000526020600020906005020160020190816105d89190610b98565b5081600086815481106105ed576105ed610ad2565b9060005260206000209060050201600301908161060a9190610b98565b50806000868154811061061f5761061f610ad2565b600091825260209182902060059190910201600401805460ff1916921515929092179091556040518681527f4e8bac1a32b11d2514ec08e01a628be195b36461888a0a9658b7d33c97b4dc7891015b60405180910390a15b5050505050565b600080546040805160a081018252828152602081018881529181018790526060810186905284151560808201526001830184559280528251600583027f290decd9548b62a8d60345a988386fc84ba6bc95484008f6362f93160ef3e5638101918255915192939290917f290decd9548b62a8d60345a988386fc84ba6bc95484008f6362f93160ef3e56401906107149082610b98565b50604082015160028201906107299082610b98565b506060820151600382019061073e9082610b98565b50608091909101516004909101805460ff19169115159190911790556000818152600160209081526040918290208054336001600160a01b0319909116811790915582519081529081018390527f5cc69ef80f253098b78e5b08eba64890db0846bf1c7fcdadd0fa4fa5a75ac59f910161066e565b803580151581146107c357600080fd5b919050565b600080604083850312156107db57600080fd5b823591506107eb602084016107b3565b90509250929050565b6000815180845260005b8181101561081a576020818501810151868301820152016107fe565b506000602082860101526020601f19601f83011685010191505092915050565b60006020808301818452808551808352604092508286019150828160051b87010184880160005b838110156108e557603f19898403018552815160a08151855288820151818a87015261088f828701826107f4565b91505087820151858203898701526108a782826107f4565b915050606080830151868303828801526108c183826107f4565b60809485015115159790940196909652505094870194925090860190600101610861565b509098975050505050505050565b634e487b7160e01b600052604160045260246000fd5b600082601f83011261091a57600080fd5b813567ffffffffffffffff80821115610935576109356108f3565b604051601f8301601f19908116603f0116810190828211818310171561095d5761095d6108f3565b8160405283815286602085880101111561097657600080fd5b836020870160208301376000602085830101528094505050505092915050565b600080600080600060a086880312156109ae57600080fd5b85359450602086013567ffffffffffffffff808211156109cd57600080fd5b6109d989838a01610909565b955060408801359150808211156109ef57600080fd5b6109fb89838a01610909565b94506060880135915080821115610a1157600080fd5b50610a1e88828901610909565b925050610a2d608087016107b3565b90509295509295909350565b60008060008060808587031215610a4f57600080fd5b843567ffffffffffffffff80821115610a6757600080fd5b610a7388838901610909565b95506020870135915080821115610a8957600080fd5b610a9588838901610909565b94506040870135915080821115610aab57600080fd5b50610ab887828801610909565b925050610ac7606086016107b3565b905092959194509250565b634e487b7160e01b600052603260045260246000fd5b600181811c90821680610afc57607f821691505b602082108103610b1c57634e487b7160e01b600052602260045260246000fd5b50919050565b600060018201610b4257634e487b7160e01b600052601160045260246000fd5b5060010190565b601f821115610b9357600081815260208120601f850160051c81016020861015610b705750805b601f850160051c820191505b81811015610b8f57828155600101610b7c565b5050505b505050565b815167ffffffffffffffff811115610bb257610bb26108f3565b610bc681610bc08454610ae8565b84610b49565b602080601f831160018114610bfb5760008415610be35750858301515b600019600386901b1c1916600185901b178555610b8f565b600085815260208120601f198616915b82811015610c2a57888601518255948401946001909101908401610c0b565b5085821015610c485787850151600019600388901b60f8161c191681555b5050505050600190811b0190555056fea2646970667358221220a4c5329076df9f4b97700272ea1b8d872be3d48ad739a5b2eab69ef99e2b9bb164736f6c63430008110033",
  "linkReferences": {},
  "deployedLinkReferences": {}
}